:020000040800F2
:100000000050002005080008450700084D070008BB
:10001000550700085D07000865070008000000009C
:1000200000000000000000000000000081530008F4
:100030006D0700080000000061550008F92B00085A
:100040004D0800084D0800084D0800084D0800083C
:100050004D0800084D0800084D0800084D0800082C
:100060004D0800084D0800084D0800084D0800081C
:100070004D0800084D0800084D0800084D0800080C
:100080004D0800084D0800084D0800084D080008FC
:100090004D0800084D0800084D0800084D080008EC
:1000A0004D0800084D0800084D0800084D080008DC
:1000B000790700084D0800084D0800084D080008A1
:1000C0004D0800084D0800084D0800084D080008BC
:1000D0004D0800084D0800084D0800084D080008AC
:1000E0004D0800084D0800084D08000800000000F9
:1000F0000000000000000000000000000000000000
:0C01000000000000000000005FF808F1A3
:1001100010B5054C237833B9044B13B10448AFF341
:1001200000800123237010BD60000020000000004B
:10013000B464000808B5034B1BB103490348AFF38F
:10014000008008BD0000000064000020B4640008C6
:10015000034613F8012B002AFBD1181A0138704707
:10016000B0B58AB000AF0E4800F0FCFF0D4B3C1D4F
:100170001D460FCD0FC40FCD0FC42B6823803B1D30
:100180001846FFF7E5FF03469AB2391D4FF0FF33DB
:10019000054802F033FB00BF2837BD46B0BD00BFA5
:1001A0007C000020CC640008AC00002080B584B046
:1001B00000AF78600023FB810F4800F053FC6421FE
:1001C0000D4800F029FD0346002B0DD10A4800F030
:1001D00029FE03469BB2FB81084B186807F10E010C
:1001E0000023002202F08AFE034800F0E9FC4FF4ED
:1001F000FA7002F0F5FDDFE77C000020FC00002033
:1002000080B590B000AF78600023FB87114B186871
:1002100007F13E014FF0FF33002202F0CFFE03460C
:10022000002BF3D1FB8F1A4607F10C030A4918463D
:1002300005F02AFC07F10C031846FFF789FF034677
:100240009AB207F10C014FF0FF33044802F0D6FADE
:10025000DCE700BFFC000020F0640008AC000020D8
:1002600080B500AF00F0F4FA00F036F800F0ECF8DA
:1002700000F082F800F0BEF8FFF772FF02F0D6FC43
:100280000D4A0221052002F0C6FD03460B4A136009
:100290000B4A00210B4802F011FD03460A4A136085
:1002A0000A4A00210A4802F009FD0346094A136080
:1002B00002F0DEFC00BFFDE798650008FC000020AE
:1002C0005065000875040008F400002074650008FB
:1002D0008B040008F800002080B594B000AF07F14F
:1002E000280328220021184605F0F0FB07F114032B
:1002F00000221A605A609A60DA601A613B1D00227F
:100300001A605A609A60DA600223BB620123BB6301
:100310001023FB6300237B6407F12803184601F0D8
:1003200033FA0346002B01D000F0C9F80F237B619C
:100330000023BB610023FB6100233B6200237B623F
:1003400007F114030021184601F0A0FC0346002B1E
:1003500001D000F0B4F802237B600023FB603B1D5A
:10036000184601F051FE0346002B01D000F0A7F81B
:1003700000BF5037BD4680BD80B584B000AF3B1D87
:1003800000221A605A609A60184B194A1A60174B7B
:1003900000229A60154B00221A73144B00221A7522
:1003A000124B4FF46022DA61104B00225A600F4B5F
:1003B00001221A610D4800F07DFA0346002B01D09E
:1003C00000F07DF800237B600123BB600023FB600D
:1003D0003B1D1946054800F031FD0346002B01D0B6
:1003E00000F06DF800BF1037BD4680BD7C000020D6
:1003F0000024014080B500AF114B124A1A60104B27
:100400004FF416525A600E4B00229A600C4B002299
:10041000DA600B4B00221A61094B0C225A61084B1F
:1004200000229A61064B0022DA61054802F096F933
:100430000346002B01D000F042F800BF80BD00BF92
:10044000AC0000200038014080B483B000AF084BFE
:100450009B69074A43F004039361054B9B6903F0D2
:1004600004037B607B6800BF0C37BD4680BC7047CF
:100470000010024080B582B000AF78607868FFF766
:1004800095FE00BF0837BD4680BD80B582B000AF85
:1004900078607868FFF7B4FE00BF0837BD4680BDBE
:1004A00080B582B000AF78607B681B68B3F1804F85
:1004B00001D100F0E3F900BF0837BD4680BD80B42C
:1004C00000AF72B600BF00BFFDE7000080B584B08A
:1004D00000AF184B9B69174A43F001039361154B1A
:1004E0009B6903F00103BB60BB68124BDB69114AD7
:1004F00043F08053D3610F4BDB6903F080537B6083
:100500007B6800220F216FF0010000F08EFF0A4B84
:100510005B68FB60FB6823F0E063FB60FB6843F013
:100520000073FB60044AFB68536000BF1037BD4690
:1005300080BD00BF001002400000014080B588B0BF
:1005400000AF786007F1100300221A605A609A60C9
:10055000DA607B681B68144A934221D1134B9B6974
:10056000124A43F400739361104B9B6903F40073C8
:10057000FB60FB680D4B9B690C4A43F004039361DD
:100580000A4B9B6903F00403BB60BB6801233B611A
:1005900003237B6107F110031946054800F070FF43
:1005A00000BF2037BD4680BD00240140001002403E
:1005B0000008014080B588B000AF786007F11003F3
:1005C00000221A605A609A60DA607B681B681C4AD5
:1005D000934231D11B4B9B691A4A43F48043936188
:1005E000184B9B6903F48043FB60FB68154B9B69C8
:1005F000144A43F004039361124B9B6903F0040314
:10060000BB60BB684FF400733B6102237B61032333
:10061000FB6107F1100319460B4800F031FF4FF45E
:1006200080633B6100237B610023BB6107F1100302
:100630001946054800F024FF00BF2037BD4680BDA5
:1006400000380140001002400008014080B58EB023
:1006500000AF78600023FB620023BB62002387F8B1
:100660003330344BDB69334A43F00103D361314B00
:10067000DB6903F00103FB60FB6807F1100207F17F
:1006800014031146184601F071FC3B6AFB62FB6AD9
:10069000002B03D101F042FC786304E001F03EFC42
:1006A00003465B007B637B6B234AA2FB03239B0C0B
:1006B000013BBB62214B4FF080421A601F4B40F25E
:1006C000E732DA601D4ABB6A53601C4B00221A6194
:1006D0001A4B00229A60194B00229A61174801F0C8
:1006E000FFFD034687F8333097F83330002B1BD1DA
:1006F000124801F04DFE034687F8333097F8333047
:10070000002B11D11C2000F0ACFE7B680F2B08D809
:10071000002279681C2000F088FE094A7B6813607B
:1007200002E0012387F8333097F833301846383722
:10073000BD4680BD0010024083DE1B430001002047
:100740000400002080B400AF00BFFDE780B400AF1C
:1007500000BFFDE780B400AF00BFFDE780B400AF8D
:1007600000BFFDE780B400AF00BFFDE780B400AF7D
:1007700000BFBD4680BC704780B500AF024801F0A5
:1007800059FE00BF80BD00BF0001002080B586B0CB
:1007900000AF7860144A154BD31A7B617B693B61CB
:1007A000134B1B68002B02D1114B124A1A60104BDD
:1007B0001A687B6813443A699A4207D205F0ECF94B
:1007C00003460C221A604FF0FF3309E0084B1B6808
:1007D000FB60074B1A687B681344054A1360FB688B
:1007E00018461837BD4680BD0050002000040000A8
:1007F00048010020801C002080B400AF00BFBD462F
:1008000080BC7047FFF7F8FF0B480C490C4A0023E7
:1008100002E0D458C4500433C4188C42F9D3094AB6
:10082000094C002301E013600432A242FBD305F01F
:10083000B9F9FFF715FD70470000002060000020A7
:100840003466000860000020801C0020FEE70000E5
:1008500080B500AF084B1B68074A43F010031360D4
:10086000032000F0D7FD0F20FFF7F0FEFFF72EFE6C
:100870000023184680BD00BF0020024080B400AFB6
:10088000054B1B781A46054B1B681344034A13603B
:1008900000BFBD4680BC7047080000204C0100200E
:1008A00080B400AF024B1B681846BD4680BC704741
:1008B0004C01002080B586B000AF78600023FB7546
:1008C00000233B610023BB600023FB607B68002B9F
:1008D00001D10123BEE07B689B68002B7B689B6A8B
:1008E000002B09D17B680022DA627B68002283F842
:1008F00024207868FFF722FE786800F0F1FB0346B9
:10090000FB757B689B6A03F01003002B40F0998015
:10091000FB7D002B40F095807B689B6A23F4885315
:1009200023F0020343F002027B689A627B685A68F4
:100930007B68DB691A437B681B7B5B001343BA68E7
:100940001343BB607B689B68B3F5807F03D07B68F3
:100950009B68012B02D14FF4807300E000233A69B9
:1009600013433B617B681B7D012B19D17B681B7B8B
:10097000002B09D17B689B69013B5A033B691343F8
:1009800043F400633B610BE07B689B6A43F0200209
:100990007B689A627B68DB6A43F001027B68DA62FB
:1009A0007B681B685B6823F469417B681B683A6954
:1009B0000A435A607B681B689A68284B13407A6820
:1009C0001268B9680B4393607B689B68B3F5807FBE
:1009D00003D07B689B68012B04D17B681B69013BBA
:1009E0001B05FB607B681B68DB6A23F470017B6876
:1009F0001B68FA680A43DA627B681B689A68184BBE
:100A00001340BA689A420BD17B680022DA627B6895
:100A10009B6A23F0030343F001027B689A6218E0AB
:100A20007B689B6A23F0120343F010027B689A6292
:100A30007B68DB6A43F001027B68DA620123FB75A5
:100A400007E07B689B6A43F010027B689A6201238F
:100A5000FB75FB7D18461837BD4680BDFDF7E1FFED
:100A6000FE0E1FFF80B584B000AF78600023FB73DB
:100A70007B6893F82430012B01D1022398E07B6836
:100A8000012283F82420786800F0D0FA0346FB7333
:100A9000FB7B002B40F087807B689B6A23F44073CC
:100AA00023F0010343F480727B689A627B681B68C1
:100AB000414A934205D1414B5B6803F47023002BFC
:100AC00015D17B689B6A23F480127B689A627B68ED
:100AD0001B685B6803F48063002B26D07B689B6AED
:100AE00023F4405343F480527B689A621DE07B6894
:100AF0009B6A43F480127B689A627B681B682F4A6A
:100B0000934204D07B681B682B4A93420DD12B4B38
:100B10005B6803F48063002B07D07B689B6A23F437
:100B2000405343F480527B689A627B689B6A03F46B
:100B30008053002B06D07B68DB6A23F006027B68BB
:100B4000DA6202E07B680022DA627B68002283F8C6
:100B500024207B681B686FF002021A607B681B68A8
:100B60009B6803F46023B3F5602F13D17B681B6887
:100B7000114A934205D1114B5B6803F47023002B9B
:100B800008D17B681B689A687B681B6842F4A002E6
:100B90009A600CE07B681B689A687B681B6842F46B
:100BA00080129A6003E07B68002283F82420FB7B9C
:100BB00018461037BD4680BD002801400024014082
:100BC00080B584B000AF78600023FB737B6893F836
:100BD0002430012B01D102231AE07B68012283F823
:100BE0002420786800F07CFA0346FB73FB7B002B23
:100BF00009D17B689B6A23F4885323F0010343F0F7
:100C000001027B689A627B68002283F82420FB7BC8
:100C100018461037BD4680BD90B587B000AF7860EC
:100C2000396000237B610023FB6000233B61FFF7F9
:100C300037FE78617B681B689B6803F48073002B28
:100C40000BD07B689B6A43F020027B689A627B68CA
:100C5000002283F824200123D3E07B681B685B68B3
:100C600003F48073002B31D17B681B68DB6A03F4CB
:100C70007003002B2AD121E03B68B3F1FF3F1DD068
:100C80003B68002B07D0FFF70BFE02467B69D31AA7
:100C90003A689A4212D27B681B681B6803F0020311
:100CA000002B0BD17B689B6A43F004027B689A623D
:100CB0007B68002283F824200323A2E07B681B6862
:100CC0001B6803F00203002BD6D070E04F4B1C686A
:100CD000022001F04FFA0346B4FBF3F27B681B6875
:100CE00019694B4B0B40002B18D17B681B68D968E6
:100CF000484B0B40002B11D17B681B681969464B90
:100D00000B40002B08D17B681B68D968434B0B4014
:100D1000002B01D1142320E029231EE07B681B68EF
:100D200019693D4B0B40002B06D17B681B68D968C5
:100D30003A4B0B40002B0DD07B681B681969384B70
:100D40000B40002B08D17B681B68D968344B0B40E3
:100D5000002B01D1542300E0FC2302FB03F33B6191
:100D600021E03B68B3F1FF3F1AD03B68002B07D06E
:100D7000FFF796FD02467B69D31A3A689A420FD272
:100D8000FB683A699A420BD97B689B6A43F004027C
:100D90007B689A627B68002283F82420032330E07A
:100DA000FB680133FB60FB683A699A42D9D87B68DB
:100DB0001B686FF012021A607B689B6A43F4007232
:100DC0007B689A627B681B689B6803F46023B3F5B9
:100DD000602F15D17B681B7B002B11D17B689B6A30
:100DE00023F480727B689A627B689B6A03F4805369
:100DF000002B05D17B689B6A43F001027B689A62F5
:100E0000002318461C37BD4690BD00BF00000020DF
:100E100024499224244992009224491292244900A0
:100E20004992240080B483B000AF78607B681B686F
:100E3000DB6C18460C37BD4680BC704780B485B06B
:100E400000AF786039600023FB730023BB607B68D0
:100E500093F82430012B01D10223DCE07B680122CE
:100E600083F824203B685B68062B1CD87B681B68D2
:100E7000596B3B685A6813469B001344053B1F227D
:100E800002FA03F3DB4319403B6818683B685A6871
:100E900013469B001344053B00FA03F27B681B6872
:100EA0000A435A633CE03B685B680C2B1CD87B68A8
:100EB0001B68196B3B685A6813469B001344233B1D
:100EC0001F2202FA03F3DB4319403B6818683B68B2
:100ED0005A6813469B001344233B00FA03F27B68D5
:100EE0001B680A431A631BE07B681B68D96A3B686E
:100EF0005A6813469B001344413B1F2202FA03F336
:100F0000DB4319403B6818683B685A6813469B00EE
:100F10001344413B00FA03F27B681B680A43DA6220
:100F20003B681B68092B1CD97B681B68D9683B6828
:100F30001A6813465B0013441E3B072202FA03F3B0
:100F4000DB4319403B6898683B681A6813465B00AE
:100F500013441E3B00FA03F27B681B680A43DA6005
:100F600019E07B681B6819693B681A6813465B00C7
:100F70001344072202FA03F3DB4319403B689868E5
:100F80003B681A6813465B00134400FA03F27B685F
:100F90001B680A431A613B681B68102B03D03B682F
:100FA0001B68112B32D17B681B681D4A934225D1E7
:100FB0007B681B689B6803F40003002B26D17B68C9
:100FC0001B689A687B681B6842F400029A603B6861
:100FD0001B68102B1AD1134B1B68134AA2FB032367
:100FE0009A0C13469B0013445B00BB6002E0BB6895
:100FF000013BBB60BB68002BF9D107E07B689B6AB3
:1010000043F020027B689A620123FB737B68002215
:1010100083F82420FB7B18461437BD4680BC7047FC
:10102000002401400000002083DE1B4380B584B013
:1010300000AF78600023FB600023BB607B681B6807
:101040009B6803F00103012B40D07B681B689A6802
:101050007B681B6842F001029A601F4B1B681F4AA5
:10106000A2FB03239B0CBB6002E0BB68013BBB609F
:10107000BB68002BF9D1FFF713FCF8601FE0FFF706
:101080000FFC0246FB68D31A022B18D97B681B6839
:101090009B6803F00103012B11D07B689B6A43F02E
:1010A00010027B689A627B68DB6A43F001027B680E
:1010B000DA627B68002283F82420012307E07B6842
:1010C0001B689B6803F00103012BD8D1002318464D
:1010D0001037BD4680BD00BF0000002083DE1B43EB
:1010E00080B584B000AF78600023FB607B681B682C
:1010F0009B6803F00103012B2ED17B681B689A6863
:101100007B681B6822F001029A60FFF7C9FBF86058
:101110001BE0FFF7C5FB0246FB68D31A022B14D96C
:101120007B681B689B6803F00103012B0DD17B6872
:101130009B6A43F010027B689A627B68DB6A43F02B
:1011400001027B68DA62012307E07B681B689B6809
:1011500003F00103012BDCD0002318461037BD46F5
:1011600080BD000090B587B000AF78600023FB75AC
:101170000023FB607B6893F82430012B01D102230C
:1011800097E07B68012283F824207868FFF7A8FFA6
:101190000346FB757868FFF749FF0346FB75FB7D47
:1011A000002B40F081807B689B6A23F4885323F0F6
:1011B000020343F002027B689A62404B1C680220E3
:1011C00000F0D8FF0346B4FBF3F35B00FB6002E0E2
:1011D000FB68013BFB60FB68002BF9D17B681B6857
:1011E0009A687B681B6842F008029A60FFF758FB18
:1011F00038611BE0FFF754FB02463B69D31A0A2B08
:1012000014D97B681B689B6803F00803002B0DD082
:101210007B689B6A23F0120343F010027B689A629A
:101220007B68002283F82420012342E07B681B684E
:101230009B6803F00803002BDCD17B681B689A686D
:101240007B681B6842F004029A60FFF729FB386153
:101250001BE0FFF725FB02463B69D31A0A2B14D982
:101260007B681B689B6803F00403002B0DD07B6830
:101270009B6A23F0120343F010027B689A627B683A
:10128000002283F82420012313E07B681B689B68FD
:1012900003F00403002BDCD17B689B6A23F003037B
:1012A00043F001027B689A627B68002283F8242065
:1012B000FB7D18461C37BD4690BD00BF00000020D6
:1012C00080B485B000AF78607B6803F00703FB60F3
:1012D0000C4BDB68BB60BA684FF6FF031340BB6082
:1012E000FB681A02BB68134343F0BF6343F4003347
:1012F000BB60044ABB68D36000BF1437BD4680BCE6
:10130000704700BF00ED00E080B400AF044BDB6825
:101310001B0A03F007031846BD4680BC704700BF98
:1013200000ED00E080B483B000AF0346FB7197F995
:101330000730002B0BDBFB7903F01F02064997F9FE
:1013400007305B09012000FA02F241F8232000BFB8
:101350000C37BD4680BC704700E100E080B483B02C
:1013600000AF03463960FB7197F90730002B0ADBA9
:101370003B68DAB20C4997F907301201D2B20B443C
:1013800083F800230AE03B68DAB20849FB7903F0EE
:101390000F03043B1201D2B20B441A7600BF0C3784
:1013A000BD4680BC704700BF00E100E000ED00E0FA
:1013B00080B489B000AFF860B9607A60FB6803F070
:1013C0000703FB61FB69C3F10703042B28BF042358
:1013D000BB61FB690433062B02D9FB69033B00E0C8
:1013E00000237B614FF0FF32BB6902FA03F3DA435B
:1013F000BB681A407B699A404FF0FF317B6901FA64
:1014000003F3D9437B680B40134318462437BD468A
:1014100080BC704780B582B000AF78607868FFF715
:101420004FFF00BF0837BD4680BD80B586B000AF16
:101430000346B9607A60FB7300237B61FFF764FFAA
:1014400078617A68B9687869FFF7B2FF024697F960
:101450000F3011461846FFF781FF00BF1837BD4611
:1014600080BD80B582B000AF0346FB7197F90730AD
:101470001846FFF757FF00BF0837BD4680BD000084
:1014800080B48BB000AF7860396000237B620023AA
:101490003B6269E101227B6A02FA03F3FB613B686C
:1014A0001B68FA691340BB61BA69FB699A4240F054
:1014B00058813B685B689A4A93425ED0984A93424F
:1014C00075D8984A934258D0964A93426FD8964A14
:1014D000934252D0944A934269D8944A93424CD052
:1014E000924A934263D8924A934246D0904A93429A
:1014F0005DD8122B2AD8122B59D801A252F823F00A
:101500007B1500085515000867150008A915000887
:10151000AF150008AF150008AF150008AF1500089B
:10152000AF150008AF150008AF150008AF1500088B
:10153000AF150008AF150008AF150008AF1500087B
:10154000AF1500085D15000871150008794A93422F
:1015500013D02CE03B68DB683B6229E03B68DB682A
:1015600004333B6224E03B68DB6808333B621FE0E6
:101570003B68DB680C333B621AE03B689B68002BDE
:1015800002D104233B6213E03B689B68012B05D129
:1015900008233B627B68FA691A6109E008233B6211
:1015A0007B68FA695A6103E000233B6200E000BFF8
:1015B000BB69FF2B01D87B6801E07B6804337B614A
:1015C000BB69FF2B02D87B6A9B0002E07B6A083B69
:1015D0009B003B617B691A680F213B6901FA03F3A9
:1015E000DB431A40396A3B6901FA03F31A437B690A
:1015F0001A603B685B6803F08053002B00F0B180F9
:101600004D4B9B694C4A43F0010393614A4B9B69E4
:1016100003F00103BB60BB68484A7B6A9B08023346
:1016200052F82330FB607B6A03F003039B000F2218
:1016300002FA03F3DB43FA681340FB607B68404A1D
:10164000934213D07B683F4A93420DD07B683E4A59
:10165000934207D07B683D4A934201D1032306E0C1
:10166000042304E0022302E0012300E000237A6A5D
:1016700002F0030292009340FA681343FB602F4983
:101680007B6A9B080233FA6841F823203B685B6859
:1016900003F48013002B06D02D4B9A682C49BB69AC
:1016A00013438B6006E02A4B9A68BB69DB432849E9
:1016B00013408B603B685B6803F40013002B06D07B
:1016C000234BDA682249BB691343CB6006E0204B09
:1016D000DA68BB69DB431E491340CB603B685B683B
:1016E00003F40033002B06D0194B5A681849BB6924
:1016F00013434B6006E0164B5A68BB69DB43144941
:1017000013404B603B685B6803F48033002B21D0AF
:101710000F4B1A680E49BB6913430B6021E000BFF1
:1017200000003210000031100000221000002110D3
:1017300000001210000011100010024000000140D3
:1017400000080140000C014000100140001401405D
:10175000000401400B4B1A68BB69DB430949134085
:101760000B607B6A01337B623B681A687B6A22FAF2
:1017700003F3002B7FF48EAE00BF00BF2C37BD46B5
:1017800080BC70470004014080B586B000AF78602F
:101790007B68002B01D1012372E27B681B6803F098
:1017A0000103002B00F08780924B5B6803F00C0371
:1017B000042B0CD08F4B5B6803F00C03082B12D169
:1017C0008C4B5B6803F48033B3F5803F0BD1894BBE
:1017D0001B6803F40033002B6CD07B685B68002B24
:1017E00068D101234CE27B685B68B3F5803F06D18A
:1017F000804B1B687F4A43F4803313602EE07B6884
:101800005B68002B0CD17B4B1B687A4A23F4803336
:101810001360784B1B68774A23F4802313601DE024
:101820007B685B68B3F5A02F0CD1724B1B68714AC3
:1018300043F4802313606F4B1B686E4A43F480337C
:1018400013600BE06B4B1B686A4A23F48033136010
:10185000684B1B68674A23F4802313607B685B68CE
:10186000002B13D0FFF71CF8386108E0FFF718F8D9
:1018700002463B69D31A642B01D9032300E25D4B76
:101880001B6803F40033002BF0D014E0FFF708F8D6
:10189000386108E0FFF704F802463B69D31A642B6D
:1018A00001D90323ECE1534B1B6803F40033002BF5
:1018B000F0D100E000BF7B681B6803F00203002B3F
:1018C00063D04C4B5B6803F00C03002B0BD0494BEF
:1018D0005B6803F00C03082B1CD1464B5B6803F4D8
:1018E0008033002B16D1434B1B6803F00203002BFF
:1018F00005D07B681B69012B01D00123C0E13D4B62
:101900001B6823F0F8027B685B69DB0039491343ED
:101910000B603AE07B681B69002B20D0364B01221C
:101920001A60FEF7BDFF386108E0FEF7B9FF024616
:101930003B69D31A022B01D90323A1E12D4B1B686C
:1019400003F00203002BF0D02A4B1B6823F0F802AF
:101950007B685B69DB00274913430B6015E0264B6E
:1019600000221A60FEF79CFF386108E0FEF798FF3E
:1019700002463B69D31A022B01D9032380E11D4B98
:101980001B6803F00203002BF0D17B681B6803F097
:101990000803002B3AD07B689B69002B19D0174BAA
:1019A00001221A60FEF77CFF386108E0FEF778FF3D
:1019B00002463B69D31A022B01D9032360E10D4B88
:1019C0005B6A03F00203002BF0D0012000F0FEFA66
:1019D0001CE00A4B00221A60FEF762FF38610FE03C
:1019E000FEF75EFF02463B69D31A022B08D9032398
:1019F00046E100BF00100240000042428004424223
:101A0000924B5B6A03F00203002BE9D17B681B68F1
:101A100003F00403002B00F0A6800023FB758B4B22
:101A2000DB6903F08053002B0DD1884BDB69874ABB
:101A300043F08053D361854BDB6903F08053BB6077
:101A4000BB680123FB75824B1B6803F48073002B7A
:101A500018D17F4B1B687E4A43F480731360FEF7F6
:101A60001FFF386108E0FEF71BFF02463B69D31AEF
:101A7000642B01D9032303E1754B1B6803F48073C6
:101A8000002BF0D07B68DB68012B06D16F4B1B6A03
:101A90006E4A43F0010313622DE07B68DB68002B84
:101AA0000CD16A4B1B6A694A23F001031362674B2E
:101AB0001B6A664A23F0040313621CE07B68DB6840
:101AC000052B0CD1614B1B6A604A43F0040313627F
:101AD0005E4B1B6A5D4A43F0010313620BE05B4BF4
:101AE0001B6A5A4A23F001031362584B1B6A574A78
:101AF00023F0040313627B68DB68002B15D0FEF72C
:101B0000CFFE38610AE0FEF7CBFE02463B69D31AEE
:101B100041F28832934201D90323B1E04B4B1B6A57
:101B200003F00203002BEED014E0FEF7B9FE38619B
:101B30000AE0FEF7B5FE02463B69D31A41F288324D
:101B4000934201D903239BE0404B1B6A03F002033D
:101B5000002BEED1FB7D012B05D13C4BDB693B4AD1
:101B600023F08053D3617B68DB69002B00F0878012
:101B7000364B5B6803F00C03082B61D07B68DB6994
:101B8000022B46D1334B00221A60FEF789FE3861E2
:101B900008E0FEF785FE02463B69D31A022B01D905
:101BA00003236DE0294B1B6803F00073002BF0D179
:101BB0007B681B6AB3F5803F08D1244B5B6823F434
:101BC00000327B689B68214913434B601F4B5B6865
:101BD00023F474127B68196A7B685B6A0B431B49A8
:101BE00013434B601B4B01221A60FEF759FE38610C
:101BF00008E0FEF755FE02463B69D31A022B01D9D5
:101C000003233DE0114B1B6803F00073002BF0D061
:101C100035E0104B00221A60FEF742FE386108E002
:101C2000FEF73EFE02463B69D31A022B01D903237D
:101C300026E0064B1B6803F00073002BF0D11EE07A
:101C40007B68DB69012B07D1012319E000100240FA
:101C500000700040600042420B4B5B68FB60FB6819
:101C600003F480327B681B6A9A4206D1FB6803F456
:101C700070127B685B6A9A4201D0012300E0002366
:101C800018461837BD4680BD0010024080B584B0AC
:101C900000AF786039607B68002B01D10123D0E070
:101CA0006A4B1B6803F007033A689A4210D9674BE6
:101CB0001B6823F0070265493B6813430B60634BC5
:101CC0001B6803F007033A689A4201D00123B8E089
:101CD0007B681B6803F00203002B20D07B681B6825
:101CE00003F00403002B05D0594B5B68584A43F4BA
:101CF000E06353607B681B6803F00803002B05D08A
:101D0000534B5B68524A43F460535360504B5B68DB
:101D100023F0F0027B689B684D4913434B607B685E
:101D20001B6803F00103002B40D07B685B68012B2C
:101D300007D1474B1B6803F40033002B15D1012357
:101D40007FE07B685B68022B07D1414B1B6803F087
:101D50000073002B09D1012373E03D4B1B6803F096
:101D60000203002B01D101236BE0394B5B6823F0A8
:101D700003027B685B68364913434B60FEF790FDB6
:101D8000F8600AE0FEF78CFD0246FB68D31A41F2C8
:101D90008832934201D9032353E02D4B5B6803F053
:101DA0000C027B685B689B009A42EBD1274B1B6857
:101DB00003F007033A689A4210D2244B1B6823F0C1
:101DC000070222493B6813430B60204B1B6803F05A
:101DD00007033A689A4201D0012332E07B681B680E
:101DE00003F00403002B08D0194B5B6823F4E06276
:101DF0007B68DB68164913434B607B681B6803F004
:101E00000803002B09D0124B5B6823F460527B68F7
:101E10001B69DB000E4913434B6000F021F80246BA
:101E20000B4B5B681B0903F00F030A49CB5C22FADA
:101E300003F3094A1360094B1B681846FEF706FCBA
:101E4000002318461037BD4680BD00BF0020024069
:101E500000100240B06500080000002004000020CF
:101E600080B487B000AF0023FB600023BB60002379
:101E70007B6100237B6000233B611E4B5B68FB6042
:101E8000FB6803F00C03042B02D0082B03D027E0DF
:101E9000194B3B6127E0FB689B0C03F00F03174ACB
:101EA000D35C7B60FB6803F48033002B10D0114BB4
:101EB0005B685B0C03F00103114AD35CBB607B6879
:101EC0000D4A03FB02F2BB68B2FBF3F37B6104E053
:101ED0007B680C4A02FB03F37B617B693B6102E098
:101EE000054B3B6100BF3B6918461C37BD4680BCB3
:101EF000704700BF0010024000127A00C865000859
:101F0000D865000800093D0080B400AF024B1B6893
:101F10001846BD4680BC70470000002080B500AF69
:101F2000FFF7F2FF0246054B5B681B0A03F007034D
:101F30000349CB5C22FA03F3184680BD001002402F
:101F4000C065000880B500AFFFF7DEFF0246054B15
:101F50005B68DB0A03F007030349CB5C22FA03F357
:101F6000184680BD00100240C065000880B483B0F0
:101F700000AF786039607B680F221A60114B5B6894
:101F800003F003027B685A600E4B5B6803F0F002BB
:101F90007B689A600B4B5B6803F4E0627B68DA60F5
:101FA000084B5B68DB0803F4E0627B681A61064B50
:101FB0001B6803F007023B681A6000BF0C37BD4680
:101FC00080BC7047001002400020024080B485B001
:101FD00000AF78600A4B1B680A4AA2FB03235B0A26
:101FE0007A6802FB03F3FB6000BFFB685A1EFA60CD
:101FF000002BF9D100BF00BF1437BD4680BC70472D
:1020000000000020D34D621080B586B000AF78602C
:1020100000233B610023FB607B681B6803F0010326
:10202000002B7DD00023FB754F4BDB6903F0805301
:10203000002B0DD14C4BDB694B4A43F08053D361ED
:10204000494BDB6903F08053BB60BB680123FB7520
:10205000464B1B6803F48073002B18D1434B1B685D
:10206000424A43F480731360FEF71AFC386108E0BB
:10207000FEF716FC02463B69D31A642B01D90323F1
:102080006DE03A4B1B6803F48073002BF0D0364BA5
:102090001B6A03F44073FB60FB68002B2ED07B6847
:1020A0005B6803F44073FA689A4227D02E4B1B6A90
:1020B00023F44073FB602E4B01221A602C4B00224C
:1020C0001A60294AFB681362FB6803F00103002BC6
:1020D00014D0FEF7E5FB38610AE0FEF7E1FB0246AB
:1020E0003B69D31A41F28832934201D9032336E087
:1020F0001D4B1B6A03F00203002BEED01A4B1B6A28
:1021000023F440727B685B68174913430B62FB7DC5
:10211000012B05D1144BDB69134A23F08053D361A3
:102120007B681B6803F00203002B08D00E4B5B6832
:1021300023F440427B689B680B4913434B607B68E8
:102140001B6803F01003002B08D0074B5B6823F4D7
:1021500080027B68DB68044913434B600023184608
:102160001837BD4680BD00BF00100240007000401F
:102170004004424280B588B000AF786000237B61A4
:102180000023FB6100233B610023FB600023BB6154
:102190007B68102B0AD07B68102B00F28A807B684A
:1021A000012B45D07B68022B75D082E0464B5B68E3
:1021B000FB60454B1B6803F08073002B7BD0FB68F2
:1021C0009B0C03F00F03414AD35C3B61FB6803F4B3
:1021D0008033002B15D03C4B5B685B0C03F0010394
:1021E0003B4AD35C7B61FB6803F48033002B0DD04A
:1021F000384A7B69B2FBF3F23B6902FB03F3FB61F4
:1022000004E03B69344A02FB03F3FB612E4B5B683D
:1022100003F48003B3F5800F02D1FB69BB614AE090
:10222000FB695B002D4AA2FB03235B08BB6142E014
:10223000254B1B6AFB60FB6803F44073B3F5807F9A
:1022400008D1FB6803F00203002B03D04FF40043D6
:10225000BB611FE0FB6803F44073B3F5007F09D155
:10226000194B5B6A03F00203002B03D049F640438D
:10227000BB610FE0FB6803F44073B3F5407F1CD1F2
:10228000114B1B6803F40033002B16D04FF224438C
:10229000BB6112E011E0FFF755FE02460A4B5B6896
:1022A0009B0B03F0030301335B00B2FBF3F3BB6151
:1022B00004E000BF02E000BF00E000BFBB691846B9
:1022C0002037BD4680BD00BF00100240DC6500081D
:1022D000EC65000800127A0000093D00ABAAAAAA2A
:1022E00080B582B000AF78607B68002B01D10123FC
:1022F00041E07B6893F83D30DBB2002B06D17B6870
:10230000002283F83C20786800F039F87B680222CC
:1023100083F83D207B681A687B68043319461046B1
:1023200000F09CF97B68012283F846207B6801223B
:1023300083F83E207B68012283F83F207B680122DE
:1023400083F840207B68012283F841207B680122CA
:1023500083F842207B68012283F843207B680122B6
:1023600083F844207B68012283F845207B680122A2
:1023700083F83D20002318460837BD4680BD80B451
:1023800083B000AF786000BF0C37BD4680BC70479B
:1023900080B485B000AF78607B6893F83D30DBB2E5
:1023A000012B01D001233AE07B68022283F83D2013
:1023B0007B681B68DA687B681B6842F00102DA60A0
:1023C0007B681B68184A93420ED07B681B68B3F188
:1023D000804F09D07B681B68144A934204D07B6805
:1023E0001B68134A934211D17B681B689B6803F0FA
:1023F0000703FB60FB68062B10D07B681B681A681C
:102400007B681B6842F001021A6007E07B681B686A
:102410001A687B681B6842F001021A6000231846A4
:102420001437BD4680BC7047002C014000040040BA
:102430000008004080B584B000AF78607B681B68FE
:10244000DB68FB607B681B681B69BB60BB6803F0D3
:102450000203002B20D0FB6803F00203002B1BD0EB
:102460007B681B686FF002021A617B6801221A7791
:102470007B681B689B6903F00303002B03D078681B
:1024800000F0D1F805E0786800F0C4F8786800F052
:10249000D3F87B6800221A77BB6803F00403002B93
:1024A00020D0FB6803F00403002B1BD07B681B6863
:1024B0006FF004021A617B6802221A777B681B683E
:1024C0009B6903F44073002B03D0786800F0ABF8ED
:1024D00005E0786800F09EF8786800F0ADF87B6859
:1024E00000221A77BB6803F00803002B20D0FB689A
:1024F00003F00803002B1BD07B681B686FF00802F9
:102500001A617B6804221A777B681B68DB6903F019
:102510000303002B03D0786800F085F805E07868A5
:1025200000F078F8786800F087F87B6800221A7766
:10253000BB6803F01003002B20D0FB6803F01003EE
:10254000002B1BD07B681B686FF010021A617B6840
:1025500008221A777B681B68DB6903F44073002B41
:1025600003D0786800F05FF805E0786800F052F872
:10257000786800F061F87B6800221A77BB6803F086
:102580000103002B0CD0FB6803F00103002B07D0E4
:102590007B681B686FF001021A617868FDF780FFA5
:1025A000BB6803F08003002B0CD0FB6803F08003B2
:1025B000002B07D07B681B686FF080021A61786877
:1025C00000F0C3F8BB6803F04003002B0CD0FB689D
:1025D00003F04003002B07D07B681B686FF04002BC
:1025E0001A61786800F031F8BB6803F02003002B13
:1025F0000CD0FB6803F02003002B07D07B681B681E
:102600006FF020021A61786800F096F800BF10376A
:10261000BD4680BD80B483B000AF786000BF0C378A
:10262000BD4680BC704780B483B000AF786000BF07
:102630000C37BD4680BC704780B483B000AF786073
:1026400000BF0C37BD4680BC704780B483B000AF7C
:10265000786000BF0C37BD4680BC704780B485B041
:1026600000AF786039607B681B68FB607B682F4A2D
:1026700093420BD07B68B3F1804F07D07B682C4A24
:10268000934203D07B682B4A934208D1FB6823F026
:102690007003FB603B685B68FA681343FB607B6810
:1026A000224A93420BD07B68B3F1804F07D07B68FE
:1026B0001F4A934203D07B681E4A934208D1FB68AD
:1026C00023F44073FB603B68DB68FA681343FB60EC
:1026D000FB6823F080023B685B691343FB607B6807
:1026E000FA681A603B689A687B68DA623B681A6825
:1026F0007B689A627B680D4A934203D13B681A69F2
:102700007B681A637B6801225A617B681B6903F04E
:102710000103002B05D07B681B6923F001027B6855
:102720001A6100BF1437BD4680BC7047002C0140C1
:10273000000400400008004080B483B000AF78601F
:1027400000BF0C37BD4680BC704780B483B000AF7B
:10275000786000BF0C37BD4680BC704780B582B042
:1027600000AF78607B68002B01D1012342E07B68D9
:1027700093F84130DBB2002B06D17B68002283F84E
:1027800040207868FDF716FF7B68242283F84120FB
:102790007B681B68DA687B681B6822F40052DA6089
:1027A000786800F071F97B681B681A697B681B68A0
:1027B00022F490421A617B681B685A697B681B6827
:1027C00022F02A025A617B681B68DA687B681B6802
:1027D00042F40052DA607B6800225A647B6820224F
:1027E00083F841207B68202283F842207B68002206
:1027F0005A63002318460837BD4680BD80B58AB0AD
:1028000002AFF860B9603B601346FB8000237B6138
:10281000FB6893F84130DBB2202B75D1BB68002BED
:1028200002D0FB88002B01D101236EE0FB6800225F
:102830005A64FB68212283F84120FEF731F8786161
:10284000FB68FA889A84FB68FA88DA84FB689B68DC
:10285000B3F5805F08D1FB681B69002B04D100230E
:10286000FB61BB68BB6103E0BB68FB610023BB612C
:102870002EE03B6800937B6900228021F86800F01D
:1028800048F80346002B05D0FB68202283F841203E
:1028900003233AE0FB69002B0BD1BB691B881A4666
:1028A000FB681B68C2F308025A60BB690233BB6154
:1028B00007E0FB691A78FB681B685A60FB69013303
:1028C000FB61FB68DB8C9BB2013B9AB2FB68DA844C
:1028D000FB68DB8C9BB2002BCBD13B6800937B6900
:1028E00000224021F86800F014F80346002B05D0C0
:1028F000FB68202283F84120032306E0FB682022A6
:1029000083F84120002300E0022318462037BD460B
:1029100080BD80B586B000AFF860B9603B601346FB
:10292000FB713BE03B6AB3F1FF3F37D0FDF7B8FFE7
:1029300002463B68D31A3A6A9A4202D33B6A002B9A
:1029400001D103233AE0FB681B68DB6803F0040352
:10295000002B23D0BB68802B20D0BB68402B1DD020
:10296000FB681B681B6803F00803082B16D10023C3
:102970007B61FB681B681B687B61FB681B685B688D
:102980007B617B69F86800F01DF8FB6808225A64D7
:10299000FB68002283F8402001230FE0FB681B68DE
:1029A0001A68BB681340BA689A420CBF012300231F
:1029B000DBB21A46FB799A42B4D000231846183786
:1029C000BD4680BD80B495B000AF78607B681B6861
:1029D0000C337B637B6B53E8003F3B633B6B23F41F
:1029E0009073FB647B681B680C33FA6C3A64FB637E
:1029F000F96B3A6C41E80023BB63BB6B002BE5D15C
:102A00007B681B6814333B623B6A53E8003FFB6101
:102A1000FB6923F00103BB647B681B681433BA6C49
:102A2000FA62BB62B96AFA6A41E800237B627B6A98
:102A3000002BE5D17B681B6B012B19D17B681B68D0
:102A40000C33FB60FB6853E8003FBB60BB6823F0BE
:102A500010037B647B681B680C337A6CBA617B6102
:102A60007969BA6941E800233B613B69002BE5D1F4
:102A70007B68202283F842207B6800221A6300BF13
:102A80005437BD4680BC704780B584B000AF7860D5
:102A90007B681B681B6923F440517B68DA687B689C
:102AA0001B680A431A617B689A687B681B691A4332
:102AB0007B685B691343BB607B681B68DB6823F43E
:102AC000B05323F00C037A681268B9680B43D360E3
:102AD0007B681B685B6923F440717B689A697B683B
:102AE0001B680A435A617B681B682C4A934203D1D6
:102AF000FFF728FAF86002E0FFF710FAF860FA68CA
:102B000013469B0013449A001A447B685B689B0041
:102B1000B2FBF3F3224AA2FB03235B091901FA6813
:102B200013469B0013449A001A447B685B689B0021
:102B3000B2FBF3F21A4BA3FB02035B09642000FB18
:102B400003F3D31A1B013233154AA2FB03235B099B
:102B500003F0F0031944FA6813469B0013449A00EB
:102B60001A447B685B689B00B2FBF3F20C4BA3FB3F
:102B700002035B09642000FB03F3D31A1B01323309
:102B8000074AA2FB03235B0903F00F027B681B6863
:102B90000A449A6000BF1037BD4680BD003801402E
:102BA0001F85EB5180B483B000AF03463960FB71E1
:102BB00097F90730002B0ADB3B68DAB20C4997F92A
:102BC00007301201D2B20B4483F800230AE03B68BD
:102BD000DAB20849FB7903F00F03043B1201D2B2C9
:102BE0000B441A7600BF0C37BD4680BC704700BF4F
:102BF00000E100E000ED00E080B500AF054B1B6890
:102C000001F026FF0346012B01D002F0CDFC00BFEE
:102C100080BD00BF10E000E080B500AF00216FF084
:102C20000400FFF7BFFF00BF80BD000080B483B089
:102C300000AFEFF305833B603B68002B03D06FF0E0
:102C400005037B600CE0094B1B68002B05D1074B8B
:102C500001221A6000237B6002E04FF0FF337B60AB
:102C60007B6818460C37BD4680BC70475001002079
:102C700080B582B000AFEFF305833B603B68002B6B
:102C800003D06FF005037B6010E00B4B1B68012B3A
:102C900009D1FFF7C1FF084B02221A6001F078FA50
:102CA00000237B6002E04FF0FF337B607B681846B7
:102CB0000837BD4680BD00BF5001002080B58EB0F2
:102CC00004AFF860B9607A6000233B61EFF30583DD
:102CD0007B617B69002B7ED1FB68002B7BD080233E
:102CE0003B621823FB6100237B624FF0FF33BB6123
:102CF0007B68002B45D07B681B68002B02D07B686B
:102D00001B687B627B689B69002B02D07B689B6998
:102D1000FB61FB69002B08D0FB69382B05D87B6869
:102D20005B6803F00103002B01D0002354E07B68B3
:102D30005B69002B03D07B685B699B083B627B6807
:102D40009B68002B0ED07B68DB68A72B0AD97B68B9
:102D50001B69002B06D07B685B69002B02D0012326
:102D6000BB6110E07B689B68002B0CD17B68DB6843
:102D7000002B08D17B681B69002B04D10023BB61A9
:102D800001E00023BB61BB69012B10D17B681B698B
:102D90007A68926802920193FB690093BB683A6A71
:102DA000796AF86801F000F803463B6113E0BB69FB
:102DB000002B10D13B6A9AB207F110030193FB6913
:102DC0000093BB68796AF86801F04EF80346012B5E
:102DD00001D000233B613B6918462837BD4680BDC2
:102DE00080B584B000AF7860EFF30583BB60BB684B
:102DF000002B03D06FF00503FB6007E00023FB60AE
:102E00007B68002B02D0786801F08CF9FB681846CB
:102E10001037BD4680BD80B58AB002AFF860B9609A
:102E20007A600023FB61EFF305833B613B69002B74
:102E30005FD1FB68002B5CD0BB68002B59D04FF0F2
:102E4000FF33BB617B68002B29D07B689B68002B1C
:102E500012D07B68DB684F2B0ED97B681B69002B77
:102E60000AD07B685A69FB68B96801FB03F39A4290
:102E700002D30123BB6114E07B689B68002B10D157
:102E80007B68DB68002B0CD17B681B69002B08D1A9
:102E90007B685B69002B04D10023BB6101E0002348
:102EA000BB61BB69012B0BD17B681A697B689B688E
:102EB00000210091B968F86800F02AFAF86108E08A
:102EC000BB69002B05D10022B968F86800F09DFAB3
:102ED000F861FB69002B0CD07B68002B03D07B686A
:102EE0001B687B6101E000237B617969F86900F070
:102EF000FFFEFB6918462037BD4680BD80B588B00F
:102F000000AFF860B9603B601346FB71FB68BB61C2
:102F10000023FB61EFF305837B617B69002B28D0E5
:102F2000BB69002B05D0BB68002B02D03B68002B8F
:102F300003D06FF00303FB6138E000233B6107F12E
:102F400010020023B968B86900F0C0FB0346012BEA
:102F500003D06FF00203FB6128E03B69002B25D012
:102F6000154B4FF080521A60BFF34F8FBFF36F8F36
:102F70001CE0BB69002B02D0BB68002B03D16FF0B3
:102F80000303FB6112E000233A68B968B86900F0F6
:102F90009BFA0346012B09D03B68002B03D06FF04E
:102FA0000103FB6102E06FF00203FB61FB6918465D
:102FB0002037BD4680BD00BF04ED00E080B588B07D
:102FC00000AFF860B9607A603B60FB68BB610023CA
:102FD000FB61EFF305837B617B69002B28D0BB6924
:102FE000002B05D0BB68002B02D03B68002B03D020
:102FF0006FF00303FB6137E000233B6107F110032F
:103000001A46B968B86900F0E1FC0346012B03D009
:103010006FF00203FB6127E03B69002B24D0154BC6
:103020004FF080521A60BFF34F8FBFF36F8F1BE0DA
:10303000BB69002B02D0BB68002B03D16FF00303E8
:10304000FB6111E03A68B968B86900F0DDFB03463E
:10305000012B09D03B68002B03D06FF00103FB610B
:1030600002E06FF00203FB61FB6918462037BD46A2
:1030700080BD00BF04ED00E080B485B000AFF86013
:10308000B9607A60FB68064A1A60BB68054A1A6034
:103090007B6880221A6000BF1437BD4680BC704731
:1030A00054010020FC01002080B485B000AFF8601E
:1030B000B9607A60FB68074A1A60BB68064A1A6002
:1030C0007B684FF480721A6000BF1437BD4680BC25
:1030D000704700BFFC030020A404002080B483B02C
:1030E00000AF78607B6803F108027B685A607B68F8
:1030F0004FF0FF329A607B6803F108027B68DA6068
:103100007B6803F108027B681A617B6800221A6001
:1031100000BF0C37BD4680BC704780B483B000AFA1
:1031200078607B6800221A6100BF0C37BD4680BC06
:10313000704780B485B000AF786039607B685B68A9
:10314000FB603B68FA685A60FB689A683B689A6063
:10315000FB689B683A685A60FB683A689A603B680B
:103160007A681A617B681B685A1C7B681A6000BF0A
:103170001437BD4680BC704780B485B000AF78601E
:1031800039603B681B68BB60BB68B3F1FF3F03D18C
:103190007B681B69FB600CE07B680833FB6002E026
:1031A000FB685B68FB60FB685B681B68BA689A42F7
:1031B000F6D2FB685A683B685A603B685B683A68BD
:1031C0009A603B68FA689A60FB683A685A603B68A4
:1031D0007A681A617B681B685A1C7B681A6000BF9A
:1031E0001437BD4680BC704780B485B000AF7860AE
:1031F0007B681B69FB607B685B687A6892689A6091
:103200007B689B687A6852685A60FB685B687A687A
:103210009A4203D17B689A68FB685A607B680022F7
:103220001A61FB681B685A1EFB681A60FB681B6802
:1032300018461437BD4680BC7047000080B584B086
:1032400000AF786039607B68FB60FB68002B0BD1B6
:103250004FF0500383F31188BFF36F8FBFF34F8F8D
:10326000BB6000BF00BFFDE702F020F9FB681A68F1
:10327000FB68DB6BF968096C01FB03F31A44FB681C
:103280009A60FB6800229A63FB681A68FB685A60C0
:10329000FB681A68FB68DB6B013BF968096C01FB92
:1032A00003F31A44FB68DA60FB68FF2283F84420CA
:1032B000FB68FF2283F845203B68002B14D1FB6894
:1032C0001B69002B1AD0FB681033184601F0FAF97D
:1032D0000346002B12D00D4B4FF080521A60BFF303
:1032E0004F8FBFF36F8F09E0FB6810331846FFF76D
:1032F000F5FEFB6824331846FFF7F0FE02F006F9EE
:10330000012318461037BD4680BD00BF04ED00E024
:1033100080B58EB002AFF860B9607A603B60FB6840
:10332000002B0BD14FF0500383F31188BFF36F8F45
:10333000BFF34F8FBB6200BF00BFFDE73B68002BB0
:103340000BD14FF0500383F31188BFF36F8FBFF39E
:103350004F8F7B6200BF00BFFDE77B68002B02D070
:10336000BB68002B01D0012300E00023002B0BD110
:103370004FF0500383F31188BFF36F8FBFF34F8F6C
:103380003B6200BF00BFFDE77B68002B02D1BB683A
:10339000002B01D1012300E00023002B0BD14FF0C3
:1033A000500383F31188BFF36F8FBFF34F8FFB611F
:1033B00000BF00BFFDE750237B617B69502B0BD022
:1033C0004FF0500383F31188BFF36F8FBFF34F8F1C
:1033D000BB6100BF00BFFDE77B693B68FB62FB6A26
:1033E000002B0DD0FB6A012283F8462097F8382085
:1033F000FB6A009313467A68B968F86800F040F8F1
:10340000FB6A18463037BD4680BD80B58AB002AF32
:10341000F860B9601346FB71FB68002B0BD14FF0CD
:10342000500383F31188BFF36F8FBFF34F8F3B615E
:1034300000BF00BFFDE7FB68BA6802FB03F3FB6156
:10344000FB695033184602F033F9B861BB69002BB1
:1034500011D0BB697B617B6950337B61BB69002202
:1034600083F84620FA79BB69009313467A69B968F4
:10347000F86800F005F8BB6918462037BD4680BDE6
:1034800080B584B000AFF860B9607A60FB70BB684B
:10349000002B03D1BB69BA691A6002E0BB697A6884
:1034A0001A60BB69FA68DA63BB69BA681A640121F9
:1034B000B869FFF7C3FEBB69FA7883F84C2000BFF8
:1034C0001037BD4680BD000080B58EB000AFF860FB
:1034D000B9607A603B6000237B63FB683B633B6BB6
:1034E000002B0BD14FF0500383F31188BFF36F8F84
:1034F000BFF34F8FBB6200BF00BFFDE7BB68002B6F
:1035000003D13B6B1B6C002B01D1012300E0002396
:10351000002B0BD14FF0500383F31188BFF36F8F53
:10352000BFF34F8F7B6200BF00BFFDE73B68022BFC
:1035300003D13B6BDB6B012B01D1012300E00023A6
:10354000002B0BD14FF0500383F31188BFF36F8F23
:10355000BFF34F8F3B6200BF00BFFDE701F078FA79
:103560000346002B02D17B68002B01D1012300E030
:103570000023002B0BD14FF0500383F31188BFF3CE
:103580006F8FBFF34F8FFB6100BF00BFFDE701F0FE
:103590008DFF3B6B9A6B3B6BDB6B9A4202D33B68B4
:1035A000022B29D13A68B968386B00F091FAF862B9
:1035B0003B6B5B6A002B10D03B6B2433184601F049
:1035C00081F80346002B13D03F4B4FF080521A6016
:1035D000BFF34F8FBFF36F8F0AE0FB6A002B07D05A
:1035E000394B4FF080521A60BFF34F8FBFF36F8F8C
:1035F00001F08CFF012363E07B68002B03D101F015
:1036000085FF00235CE07B6B002B06D107F11403E0
:10361000184601F0BBF801237B6301F077FF00F04F
:1036200027FE01F043FF3B6B93F844305BB2B3F1EC
:10363000FF3F03D13B6B002283F844203B6B93F8A0
:1036400045305BB2B3F1FF3F03D13B6B002283F8FF
:10365000452001F05BFF3A1D07F11403114618469F
:1036600001F0AAF80346002B24D1386B00F028FBA8
:103670000346002B18D03B6B10337A68114618466E
:1036800000F0CEFF386B00F0B3FA00F0FFFD034608
:10369000002B7FF47CAF0C4B4FF080521A60BFF3CD
:1036A0004F8FBFF36F8F72E7386B00F0A1FA00F015
:1036B000EDFD6CE7386B00F09BFA00F0E7FD0023AE
:1036C00018463837BD4680BD04ED00E080B590B0A7
:1036D00000AFF860B9607A603B60FB68BB63BB6BAE
:1036E000002B0BD14FF0500383F31188BFF36F8F82
:1036F000BFF34F8FBB6200BF00BFFDE7BB68002B6D
:1037000003D1BB6B1B6C002B01D1012300E0002314
:10371000002B0BD14FF0500383F31188BFF36F8F51
:10372000BFF34F8F7B6200BF00BFFDE73B68022BFA
:1037300003D1BB6BDB6B012B01D1012300E0002324
:10374000002B0BD14FF0500383F31188BFF36F8F21
:10375000BFF34F8F3B6200BF00BFFDE701F068FF82
:10376000EFF311824FF0500383F31188BFF36F8F93
:10377000BFF34F8FFA61BB61FB697B63BB6B9A6BD5
:10378000BB6BDB6B9A4202D33B68022B2FD1BB6B26
:1037900093F8453087F83330BB6B9B6BFB623A681C
:1037A000B968B86B00F094F997F93330B3F1FF3F83
:1037B00012D1BB6B5B6A002B16D0BB6B243318464F
:1037C00000F080FF0346002B0ED07B68002B0BD04F
:1037D0007B6801221A6007E097F833300133DBB2CF
:1037E0005AB2BB6B83F845200123FB6301E0002341
:1037F000FB637B6B7B617B6983F3118800BFFB6B91
:1038000018464037BD4680BD80B58CB000AFF8602B
:10381000B9607A600023FB62FB68BB62BB6A002B65
:103820000BD14FF0500383F31188BFF36F8FBFF3B9
:103830004F8F3B6200BF00BFFDE7BB68002B03D189
:10384000BB6A1B6C002B01D1012300E00023002B7D
:103850000BD14FF0500383F31188BFF36F8FBFF389
:103860004F8FFB6100BF00BFFDE701F0F1F8034699
:10387000002B02D17B68002B01D1012300E0002343
:10388000002B0BD14FF0500383F31188BFF36F8FE0
:10389000BFF34F8FBB6100BF00BFFDE701F006FE25
:1038A000BB6A9B6B7B627B6A002B1FD0B968B86ACE
:1038B00000F078F97B6A5A1EBB6A9A63BB6A1B697F
:1038C000002B0FD0BB6A1033184600F0FBFE0346F6
:1038D000002B07D03C4B4FF080521A60BFF34F8F44
:1038E000BFF36F8F01F012FE012369E07B68002BAC
:1038F00003D101F00BFE002362E0FB6A002B06D12E
:1039000007F11003184600F041FF0123FB6201F0AC
:10391000FDFD00F0ADFC01F0C9FDBB6A93F8443039
:103920005BB2B3F1FF3F03D1BB6A002283F84420AE
:10393000BB6A93F845305BB2B3F1FF3F03D1BB6A7A
:10394000002283F8452001F0E1FD3A1D07F1100344
:103950001146184600F030FF0346002B23D1B86A09
:1039600000F098F90346002B17D0BB6A24337A681D
:103970001146184600F054FEB86A00F039F900F01C
:1039800085FC0346002B89D10F4B4FF080521A6003
:10399000BFF34F8FBFF36F8F80E7B86A00F028F94D
:1039A00000F074FC7AE7B86A00F022F900F06EFCCF
:1039B000B86A00F06FF90346002B3FF46FAF0023A5
:1039C00018463037BD4680BD04ED00E080B58EB0AE
:1039D00000AFF860B9607A60FB683B633B6B002B1B
:1039E0000BD14FF0500383F31188BFF36F8FBFF3F8
:1039F0004F8F3B6200BF00BFFDE7BB68002B03D1C8
:103A00003B6B1B6C002B01D1012300E00023002B3A
:103A10000BD14FF0500383F31188BFF36F8FBFF3C7
:103A20004F8FFB6100BF00BFFDE701F001FEEFF328
:103A300011824FF0500383F31188BFF36F8FBFF3F0
:103A40004F8FBA617B61BB69FB623B6B9B6BBB6257
:103A5000BB6A002B2FD03B6B93F8443087F827309C
:103A6000B968386B00F09EF8BB6A5A1E3B6B9A63CC
:103A700097F92730B3F1FF3F12D13B6B1B69002B45
:103A800016D03B6B1033184600F01CFE0346002B8B
:103A90000ED07B68002B0BD07B6801221A6007E0F8
:103AA00097F827300133DBB25AB23B6B83F84420DE
:103AB00001237B6301E000237B63FB6A3B613B697D
:103AC00083F3118800BF7B6B18463837BD4680BD35
:103AD00080B586B000AFF860B9607A6000237B6182
:103AE000FB689B6B3B61FB681B6C002B0DD1FB687B
:103AF0001B68002B4DD1FB689B68184600F0C6FF81
:103B00007861FB6800229A6043E07B68002B19D142
:103B1000FB685868FB681B6C1A46B96802F068F8C5
:103B2000FB685A68FB681B6C1A44FB685A60FB68A8
:103B30005A68FB689B689A422BD3FB681A68FB683B
:103B40005A6026E0FB68D868FB681B6C1A46B968A7
:103B500002F04EF8FB68DA68FB681B6C5B421A44A3
:103B6000FB68DA60FB68DA68FB681B689A4207D278
:103B7000FB689A68FB681B6C5B421A44FB68DA605E
:103B80007B68022B05D13B69002B02D03B69013BCE
:103B90003B613B695A1CFB689A637B69184618377E
:103BA000BD4680BD80B582B000AF786039607B686B
:103BB0001B6C002B18D07B68DA687B681B6C1A447E
:103BC0007B68DA607B68DA687B689B689A4203D31B
:103BD0007B681A687B68DA607B68D9687B681B6CD5
:103BE0001A46386802F004F800BF0837BD4680BDA9
:103BF00080B584B000AF786001F058FC7B6893F822
:103C00004530FB7311E07B685B6A002B12D07B6848
:103C10002433184600F056FD0346002B01D000F077
:103C20002FFEFB7B013BDBB2FB7397F90F30002BC0
:103C3000E9DC00E000BF7B68FF2283F8452001F04B
:103C400065FC01F033FC7B6893F84430BB7311E0F2
:103C50007B681B69002B12D07B681033184600F07C
:103C600031FD0346002B01D000F00AFEBB7B013B77
:103C7000DBB2BB7397F90E30002BE9DC00E000BF2C
:103C80007B68FF2283F8442001F040FC00BF10371E
:103C9000BD4680BD80B584B000AF786001F006FC01
:103CA0007B689B6B002B02D10123FB6001E00023AA
:103CB000FB6001F02BFCFB6818461037BD4680BD49
:103CC00080B584B000AF786001F0F0FB7B689A6B40
:103CD0007B68DB6B9A4202D10123FB6001E0002389
:103CE000FB6001F013FCFB6818461037BD4680BD31
:103CF00080B485B000AF786039600023FB6014E0C9
:103D00000E4AFB6852F83330002B0BD10B49FB688D
:103D10003A6841F83320094AFB68DB0013447A68AB
:103D20005A6006E0FB680133FB60FB68072BE7D9AC
:103D300000BF00BF1437BD4680BC7047A4080020F8
:103D400080B586B000AFF860B9607A60FB687B61CF
:103D500001F0ACFB7B6993F844305BB2B3F1FF3FF9
:103D600003D17B69002283F844207B6993F84530B6
:103D70005BB2B3F1FF3F03D17B69002283F845209A
:103D800001F0C4FB7B699B6B002B06D17B6924335C
:103D90007A68B968184600F069FC7869FFF728FF6F
:103DA00000BF1837BD4680BD80B58EB004AFF86047
:103DB000B9607A603B607B6B002B0BD14FF05003F6
:103DC00083F31188BFF36F8FBFF34F8F3B6200BF48
:103DD00000BFFDE7BB6B002B0BD14FF0500383F30B
:103DE0001188BFF36F8FBFF34F8FFB6100BF00BF20
:103DF000FDE7A8233B613B69A82B0BD04FF0500394
:103E000083F31188BFF36F8FBFF34F8FBB6100BF88
:103E100000BFFDE73B69BB6B002B1ED07B6B002B0B
:103E20001BD0BB6B7B627B6A7A6B1A637B6A022254
:103E300083F8A520002303937B6A029307F1140300
:103E400001933B6B00933B687A68B968F86800F0AF
:103E500051F8786A00F0F6F801E000237B617B6995
:103E600018462837BD4680BD80B58CB004AFF860D9
:103E7000B9603B601346FB80FB889B00184601F04D
:103E800017FC78617B69002B0ED0A82001F010FC94
:103E9000F861FB69002B03D0FB697A691A6305E0BE
:103EA000786901F0D3FC01E00023FB61FB69002B82
:103EB00017D0FB69002283F8A520FA88002303931A
:103EC000FB690293FB6A0193BB6A00933B68B96884
:103ED000F86800F00FF8F86900F0B4F80123BB614E
:103EE00002E04FF0FF33BB61BB6918462037BD4687
:103EF00080BD000080B588B000AFF860B9607A601E
:103F00003B603B6B186B7B689B001A46A52101F058
:103F1000DDFD3B6B1A6B7B6803F18043013B9B002B
:103F20001344BB61BB6923F00703BB61BB6903F0AA
:103F30000703002B0BD04FF0500383F31188BFF31E
:103F40006F8FBFF34F8F7B6100BF00BFFDE7BB6882
:103F5000002B1FD00023FB6112E0BA68FB691344F9
:103F600019783A6BFB69134434330A461A70BA68FD
:103F7000FB6913441B78002B06D0FB690133FB61FE
:103F8000FB690F2BE9D900E000BF3B6B002283F8EF
:103F9000432003E03B6B002283F83420BB6A372BBD
:103FA00001D93723BB623B6BBA6ADA623B6BBA6AF0
:103FB000DA643B6B00221A653B6B04331846FFF74B
:103FC000ACF83B6B18331846FFF7A7F83B6B3A6B1E
:103FD0001A61BB6AC3F138023B6B9A613B6B3A6B67
:103FE0005A623B6B0022C3F8A0203B6B002283F88F
:103FF000A4203B6B54334C220021184601F066FD8F
:104000003B6B0D4A9A653B6B0C4ADA653B6B0C4A7D
:104010001A663A68F968B86901F054F902463B6BD0
:104020001A60FB6A002B02D0FB6A3A6B1A6000BF71
:104030002037BD4680BD00BF381B0020A01B0020DC
:10404000081C002080B582B000AF786001F02EFA25
:104050002D4B1B6801332C4A13602C4B1B68002B23
:1040600009D12A4A7B681360274B1B68012B10D1AA
:1040700000F02AFC0DE0264B1B68002B09D1234BD6
:104080001B68DA6A7B68DB6A9A4202D81F4A7B683F
:104090001360204B1B6801331E4A13601D4B1A68C6
:1040A0007B685A647B68DA6A1B4B1B689A4203D9A7
:1040B0007B68DB6A184A13607B68DA6A13469B00E8
:1040C00013449B00154A1A447B6804331946104672
:1040D000FFF72FF801F01AFA0D4B1B68002B0ED0DA
:1040E0000A4B1B68DA6A7B68DB6A9A4207D20C4B80
:1040F0004FF080521A60BFF34F8FBFF36F8F00BF36
:104100000837BD4680BD00BFB80D0020E408002080
:10411000C40D0020D40D0020C00D0020E8080020B0
:1041200004ED00E080B584B000AF78600023FB6050
:104130007B68002B18D0144B1B68002B0BD04FF062
:10414000500383F31188BFF36F8FBFF34F8FBB60B2
:1041500000BF00BFFDE700F08BF80021786800F099
:1041600005FD00F093F8F860FB68002B07D1074BC2
:104170004FF080521A60BFF34F8FBFF36F8F00BFB5
:104180001037BD4680BD00BFE00D002004ED00E00B
:1041900080B58AB004AF0023BB6000237B603A4641
:1041A000391D07F108031846FEF766FF39687B687A
:1041B000BA68029201930023009300230A4624491F
:1041C0002448FFF7F1FD0346234A1360224B1B6886
:1041D000002B02D001237B6101E000237B617B691E
:1041E000012B02D100F016FD78617B69012B1BD1F8
:1041F0004FF0500383F31188BFF36F8FBFF34F8FDE
:104200003B6100BF154B1B685433154A1360154BB7
:104210004FF0FF321A60144B01221A60134B002238
:104220001A6001F0D1F80FE07B69B3F1FF3F0BD1C9
:104230004FF0500383F31188BFF36F8FBFF34F8F9D
:10424000FB6000BF00BFFDE700BF1837BD4680BD63
:104250003865000899480008DC0D0020E4080020BB
:1042600010000020D80D0020C40D0020BC0D00203F
:1042700080B400AF044B1B680133034A136000BFD6
:10428000BD4680BC704700BFE00D002080B584B003
:1042900000AF0023FB600023BB60424B1B68002B78
:1042A0000BD14FF0500383F31188BFF36F8FBFF32F
:1042B0004F8F3B6000BF00BFFDE701F0F7F8394BBF
:1042C0001B68013B374A1360364B1B68002B62D1D9
:1042D000354B1B68002B5ED02FE0344BDB68DB686E
:1042E000FB60FB6818331846FEF77EFFFB6804335B
:1042F0001846FEF779FFFB68DA6A2D4B1B689A4275
:1043000003D9FB68DB6A2A4A1360FB68DA6A134642
:104310009B0013449B00274A1A44FB680433194648
:104320001046FEF706FFFB68DA6A234B1B68DB6A60
:104330009A4202D3214B01221A601C4B1B68002BAE
:10434000CBD1FB68002B01D000F062FB1C4B1B683B
:104350007B607B68002B10D000F044F80346002BF4
:1043600002D0164B01221A607B68013B7B607B68A0
:10437000002BF1D1124B00221A60104B1B68002B4E
:1043800009D00123BB600F4B4FF080521A60BFF37E
:104390004F8FBFF36F8F01F0B9F8BB681846103725
:1043A000BD4680BDE00D0020B80D0020780D002036
:1043B000C00D0020E8080020E4080020CC0D0020FB
:1043C000C80D002004ED00E080B483B000AF044BC2
:1043D0001B687B607B6818460C37BD4680BC704705
:1043E000BC0D002080B586B000AF00237B614F4B31
:1043F0001B68002B40F090804D4B1B6801333B61E4
:104400004B4A3B6913603B69002B21D1494B1B6828
:104410001B68002B0BD04FF0500383F31188BFF3C0
:104420006F8FBFF34F8F3B6000BF00BFFDE7414B75
:104430001B68FB60404B1B683E4A13603E4AFB68AA
:1044400013603E4B1B6801333C4A136000F0E0FAF6
:104450003B4B1B683A699A4249D3364B1B681B6831
:10446000002B04D1364B4FF0FF321A603FE0314B46
:104470001B68DB68DB68BB60BB685B687B603A69B4
:104480007B689A4203D22E4A7B6813602FE0BB6898
:1044900004331846FEF7A8FEBB689B6A002B04D0C5
:1044A000BB6818331846FEF79FFEBB68DA6A254BD7
:1044B0001B689A4203D9BB68DB6A224A1360BB6857
:1044C000DA6A13469B0013449B001F4A1A44BB68D8
:1044D000043319461046FEF72CFEBB68DA6A1B4B04
:1044E0001B68DB6A9A42B8D301237B61B5E7174B9F
:1044F0001B68DA6A144913469B0013449B000B4463
:104500001B68012B01D901237B61114B1B68002B18
:1045100007D001237B6104E00E4B1B6801330D4A79
:1045200013607B6918461837BD4680BDE00D00203A
:10453000BC0D0020700D0020740D0020D00D002057
:10454000D80D0020C00D0020E8080020E40800205D
:10455000CC0D0020C80D002080B485B000AF2A4BE0
:104560001B68002B03D0294B01221A6047E0274B20
:1045700000221A60264B1B68FB6011E0FB68002BD1
:104580000BD14FF0500383F31188BFF36F8FBFF34C
:104590004F8F7B6000BF00BFFDE7FB68013BFB6006
:1045A0001C49FA6813469B0013449B000B441B688C
:1045B000002BE3D0FA6813469B0013449B00154A76
:1045C0001344BB60BB685B685A68BB685A60BB68D1
:1045D0005A68BB6808339A4204D1BB685B685A6862
:1045E000BB685A60BB685B68DB680B4A1360084AAB
:1045F000FB681360084B1B685433084A136000BF04
:104600001437BD4680BC7047E00D0020CC0D002063
:10461000C00D0020E8080020E40800201000002061
:1046200080B584B000AF786039607B68002B0BD117
:104630004FF0500383F31188BFF36F8FBFF34F8F99
:10464000FB6000BF00BFFDE7074B1B68183319462E
:104650007868FEF791FD0121386800F087FA00BF05
:104660001037BD4680BD00BFE408002080B586B08D
:1046700000AFF860B9607A60FB68002B0BD14FF097
:10468000500383F31188BFF36F8FBFF34F8F7B61AC
:1046900000BF00BFFDE70A4B1B6818331946F868D6
:1046A000FEF747FD7B68002B02D04FF0FF33BB6065
:1046B0007968B86800F05AFA00BF1837BD4680BD67
:1046C000E408002080B586B000AF78607B68DB68C6
:1046D000DB683B613B69002B0BD14FF0500383F348
:1046E0001188BFF36F8FBFF34F8FFB6000BF00BF18
:1046F000FDE73B6918331846FEF776FD1D4B1B6836
:10470000002B1DD13B6904331846FEF76DFD3B6954
:10471000DA6A194B1B689A4203D93B69DB6A164A6D
:1047200013603B69DA6A13469B0013449B00134AEB
:104730001A443B69043319461046FEF7FAFC05E0BB
:104740003B69183319460E48FEF7F3FC3B69DA6AF9
:104750000C4B1B68DB6A9A4205D901237B610A4B2B
:1047600001221A6001E000237B617B69184618373B
:10477000BD4680BDE00D0020C00D0020E8080020EF
:10478000780D0020E4080020CC0D002080B483B018
:1047900000AF7860064B1A687B681A60054B1A6890
:1047A0007B685A6000BF0C37BD4680BC704700BFB5
:1047B000D00D0020BC0D002080B588B000AF78601F
:1047C00039607B68002B0BD14FF0500383F31188C5
:1047D000BFF36F8FBFF34F8F3B6100BF00BFFDE79B
:1047E0003B68002B0BD14FF0500383F31188BFF3CC
:1047F0006F8FBFF34F8FFB6000BF00BFFDE700F07E
:1048000055FE1D4B1B68BB617B685B68BA69D31A98
:104810007B613B681B68B3F1FF3F02D10023FB6162
:1048200023E07B681A68154B1B689A4207D07B68A7
:104830005B68BA699A4202D30123FB6115E03B68C9
:104840001B687A699A420BD23B681A687B69D21A54
:104850003B681A607868FFF799FF0023FB6104E06A
:104860003B6800221A600123FB6100F04FFEFB69E8
:1048700018462037BD4680BDBC0D0020D00D00205D
:1048800080B400AF034B01221A6000BFBD4680BC5C
:10489000704700BFCC0D002080B582B000AF7860BB
:1048A00000F052F8064B1B68012BF9D9054B4FF06D
:1048B00080521A60BFF34F8FBFF36F8FF0E700BFD6
:1048C000E808002004ED00E080B582B000AF0023CE
:1048D0007B600CE07A6813469B0013449B00124AED
:1048E00013441846FEF7FAFB7B6801337B607B6854
:1048F000372BEFD90D48FEF7F1FB0D48FEF7EEFB25
:104900000C48FEF7EBFB0C48FEF7E8FB0B48FEF704
:10491000E5FB0B4B054A1A600A4B054A1A6000BFBB
:104920000837BD4680BD00BFE8080020480D0020C4
:104930005C0D0020780D00208C0D0020A40D0020BF
:10494000700D0020740D002080B582B000AF19E01A
:1049500000F0ACFD104BDB68DB687B607B680433E8
:104960001846FEF741FC0D4B1B68013B0B4A1360D8
:104970000B4B1B68013B0A4A136000F0C7FD7868C7
:1049800000F010F8064B1B68002BE1D100BF00BF00
:104990000837BD4680BD00BF8C0D0020B80D00203B
:1049A000A00D002080B584B000AF78607B685433E0
:1049B000184601F093F87B6893F8A530002B08D1D6
:1049C0007B681B6B184600F041FF786800F03EFFE3
:1049D00019E07B6893F8A530012B03D1786800F0CB
:1049E00035FF10E07B6893F8A530022B0BD04FF019
:1049F000500383F31188BFF36F8FBFF34F8FFB60BA
:104A000000BF00BFFDE700BF1037BD4680BD0000FE
:104A100080B483B000AF0C4B1B681B68002B04D123
:104A20000A4B4FF0FF321A6008E0074B1B68DB6847
:104A3000DB687B607B685B68044A136000BF0C37EF
:104A4000BD4680BC704700BF700D0020D80D00200F
:104A500080B483B000AF0B4B1B68002B02D1012345
:104A60007B6008E0084B1B68002B02D102237B60AF
:104A700001E000237B607B6818460C37BD4680BC94
:104A8000704700BFC40D0020E00D002080B586B047
:104A900000AF78607B683B6100237B617B68002B03
:104AA00058D02F4B1B683A699A420BD04FF05003F5
:104AB00083F31188BFF36F8FBFF34F8FFB6000BF8D
:104AC00000BFFDE73B691B6D002B0BD14FF050037E
:104AD00083F31188BFF36F8FBFF34F8FBB6000BFAD
:104AE00000BFFDE73B691B6D5A1E3B691A653B69B8
:104AF000DA6A3B69DB6C9A422CD03B691B6D002B58
:104B000028D13B6904331846FEF76EFB3B69DA6C2B
:104B10003B69DA623B69DB6AC3F138023B699A613F
:104B20003B69DA6A0F4B1B689A4203D93B69DB6A1F
:104B30000C4A13603B69DA6A13469B0013449B00DE
:104B4000094A1A443B69043319461046FEF7F1FA44
:104B500001237B617B6918461837BD4680BD00BFC5
:104B6000E4080020C00D0020E808002080B584B0D3
:104B700000AF78603960214B1B68FB60204B1B68DD
:104B800004331846FEF730FB7B68B3F1FF3F0AD1D0
:104B90003B68002B07D01A4B1B6804331946194891
:104BA000FEF7C7FA26E0FA687B681344BB60144B33
:104BB0001B68BA685A60BA68FB689A4209D2124BFD
:104BC0001A680F4B1B68043319461046FEF7D4FAD7
:104BD00010E00E4B1A680A4B1B6804331946104646
:104BE000FEF7CAFA0A4B1B68BA689A4202D2084A10
:104BF000BB68136000BF1037BD4680BDBC0D0020F0
:104C0000E4080020A40D0020740D0020700D002089
:104C1000D80D002080B58AB004AF00237B6100F07E
:104C200011FB1D4B1B68002B21D00023FB600023D0
:104C3000BB603A1D07F1080107F10C031846FEF7A7
:104C400033FA7968BB68FA680292019302230093F1
:104C500000230A4611491248FFF7A6F80346114AF5
:104C60001360104B1B68002B01D001237B617B6913
:104C7000002B0BD14FF0500383F31188BFF36F8FDC
:104C8000BFF34F8F3B6100BF00BFFDE77B69184654
:104C90001837BD4680BD00BF140E002040650008D7
:104CA000E14D0008180E002080B58AB000AFF86012
:104CB000B9607A603B6000237B62FB68002B0BD1FC
:104CC0004FF0500383F31188BFF36F8FBFF34F8F03
:104CD0003B6200BF00BFFDE7194B1B68002B2AD0C9
:104CE000BB683B617B687B61FB68BB61BB68052B74
:104CF00018DCFFF7ADFE0346022B09D1104B1868F4
:104D000007F1100100233A6BFEF7DEFB786212E038
:104D10000B4B186807F1100100230022FEF7D4FBAB
:104D2000786208E0064B186807F1100100233A6822
:104D3000FEF7CCFC78627B6A18462837BD4680BDFA
:104D4000140E002080B588B002AF78603960234B24
:104D50001B68DB68DB687B617B6904331846FEF700
:104D600043FA7B6993F8283003F00403002B23D027
:104D70007B699A697B68D1187B683A68786900F02A
:104D8000D3F80346002B20D00023009300237A6839
:104D900000217869FFF788FF38613B69002B14D147
:104DA0004FF0500383F31188BFF36F8FBFF34F8F22
:104DB000FB6000BF00BFFDE77B6993F8283023F05C
:104DC0000103DAB27B6983F828207B691B6A786962
:104DD000984700BF1837BD4680BD00BF0C0E0020AD
:104DE00080B584B000AF786007F10803184600F082
:104DF00059F8F860BB681946F86800F005F800F04B
:104E0000D5F800BFF0E7000080B584B000AF78604F
:104E10003960FFF72DFA07F10803184600F064F82F
:104E2000F860BB68002B30D13B68002B0AD17A6850
:104E3000FB689A4206D8FFF729FAF9687868FFF705
:104E400081FF24E03B68002B08D0134B1B681B68D4
:104E5000002B01D1012300E000233B600F4B1868B9
:104E60007A68FB68D31A3A681946FEF769FFFFF7BC
:104E70000DFA0346002B0AD1094B4FF080521A60FD
:104E8000BFF34F8FBFF36F8F01E0FFF7FFF900BF54
:104E90001037BD4680BD00BF100E0020140E00204C
:104EA00004ED00E080B485B000AF78600D4B1B6866
:104EB0001B68002B01D1012200E000227B681A60F0
:104EC0007B681B68002B05D1064B1B68DB681B68E1
:104ED000FB6001E00023FB60FB6818461437BD4609
:104EE00080BC70470C0E002080B584B000AF7860A5
:104EF000FFF76AFAF8600B4B1B68FA689A4205D212
:104F000000F03AF97B6801221A6002E07B68002217
:104F10001A60044AFB681360FB6818461037BD46E8
:104F200080BD00BF1C0E002080B586B000AFF860C9
:104F3000B9607A603B6000237B61FB68BA685A60A5
:104F4000FB68FA681A61BA687B689A4212D87A6874
:104F50003B68D21AFB689B699A4202D301237B61AA
:104F60001BE0104B1A68FB68043319461046FEF725
:104F700003F912E07A683B689A4206D2BA683B6845
:104F80009A4202D301237B6107E0074B1A68FB6852
:104F9000043319461046FEF7EFF87B6918461837B8
:104FA000BD4680BD100E00200C0E002080B58EB0D6
:104FB00002AFCEE07B68002B19DA3B1D0433FB62A5
:104FC000FB6A002B0BD14FF0500383F31188BFF322
:104FD0006F8FBFF34F8FFB6100BF00BFFDE7FB6A20
:104FE0001B68FA6A5068FA6A9268114698477B68AB
:104FF000002BC0F2AE80FB68BB62BB6A5B69002B12
:1050000004D0BB6A04331846FEF7EEF83B46184658
:10501000FFF76AFF78627B68092B00F2978001A294
:1050200052F823F04D5000084D5000084D50000834
:10503000C3500008D7500008235100084D50000805
:105040004D500008C3500008D7500008BB6A93F8C1
:10505000283043F00103DAB2BB6A83F82820BA682B
:10506000BB6A9B69D118BB687A6AB86AFFF75CFFB4
:105070000346002B6CD0BB6A1B6AB86A9847BB6AB0
:1050800093F8283003F00403002B61D0BA68BB6AA0
:105090009B691A440023009300230021B86AFFF79C
:1050A00003FE38623B6A002B52D14FF0500383F36A
:1050B0001188BFF36F8FBFF34F8FBB6100BF00BF7D
:1050C000FDE7BB6A93F8283023F00103DAB2BB6A2C
:1050D00083F828203DE0BB6A93F8283043F00103B1
:1050E000DAB2BB6A83F82820BA68BB6A9A61BB6AE5
:1050F0009B69002B0BD14FF0500383F31188BFF352
:105100006F8FBFF34F8F7B6100BF00BFFDE7BB6AAE
:105110009A697B6AD1187B6A7A6AB86AFFF704FFDA
:1051200017E0BB6A93F8283003F00203002B03D189
:10513000B86A00F08BFB0CE0BB6A93F8283023F0D0
:105140000103DAB2BB6A83F8282002E000BF00E066
:1051500000BF084B1B68391D00221846FEF754FBA0
:105160000346002B7FF426AF00BF00BF3037BD469B
:1051700080BD00BF140E002080B588B002AF49E0AA
:105180002E4B1B68DB681B683B612C4B1B68DB6884
:10519000DB68FB60FB6804331846FEF725F8FB6804
:1051A0001B6AF8689847FB6893F8283003F00403FB
:1051B000002B2FD0FB689B693A691344BB60BA6827
:1051C0003B699A420ED9FB68BA685A60FB68FA6874
:1051D0001A611A4B1A68FB68043319461046FDF72A
:1051E000CBFF17E00023009300233A690021F86801
:1051F000FFF75AFD78607B68002B0BD14FF050030E
:1052000083F31188BFF36F8FBFF34F8F3B6000BFF5
:1052100000BFFDE7094B1B681B68002BB0D1074B93
:105220001B687B61064B1B68044A1360044A7B6958
:10523000136000BF1837BD4680BD00BF0C0E0020B4
:10524000100E002080B582B002AF00F02FF9154B90
:105250001B68002B20D11448FDF740FF1348FDF7D1
:105260003DFF134B104A1A60124B104A1A6000237C
:105270000093114B114A10210A20FEF749F803460A
:10528000084A1360074B1B68002B05D0054B1B68B1
:105290000B491846FEF72CFD00F038F900BFBD465B
:1052A00080BD00BF140E0020E40D0020F80D00208A
:1052B0000C0E0020100E0020C00E0020200E00203A
:1052C0004865000880B485B000AFF860B9607A60C6
:1052D000FB68043BFB60FB684FF080721A60FB6860
:1052E000043BFB60BB6823F00102FB681A60FB68AB
:1052F000043BFB60084AFB681A60FB68143BFB60D8
:105300007A68FB681A60FB68203BFB60FB68184604
:105310001437BD4680BC70471D53000880B485B06B
:1053200000AF00237B60124B1B68B3F1FF3F0BD033
:105330004FF0500383F31188BFF36F8FBFF34F8F8C
:10534000FB6000BF00BFFDE74FF0500383F31188FF
:10535000BFF36F8FBFF34F8FBB6000BF00BF7B6891
:10536000002BFCD000BF00BF1437BD4680BC704787
:105370000C00002000000000000000000000000001
:10538000074B19680868B0E8F00F80F30988BFF38D
:105390006F8F4FF0000080F311884EF00D0E7047B4
:1053A000E408002000BF00BF06480068006880F3E2
:1053B000088862B661B6BFF34F8FBFF36F8F00DF0F
:1053C00000BF00BF08ED00E080B584B000AF324BF5
:1053D000FB60FB681B78DBB27B60FB68FF221A7006
:1053E000FB681B78DBB2FB70FB78DBB203F0500389
:1053F000DAB22A4B1A702A4B07221A6009E0284BAE
:105400001B68013B264A1360FB78DBB25B00DBB212
:10541000FB70FB78DBB203F08003802BEFD0204BD6
:105420001B68C3F10703042B0BD04FF0500383F329
:105430001188BFF36F8FBFF34F8FBB6000BF00BFFA
:10544000FDE7174B1B681B02154A1360144B1B68C2
:1054500003F4E063124A13607B68DAB2FB681A70E7
:10546000104B1B680F4A43F4700313600D4B1B680D
:105470000C4A43F07043136000F0B8F80A4B002266
:105480001A60FFF791FFFFF767F8FFF747FF002368
:1054900018461037BD4680BD00E400E0100F002024
:1054A000140F002020ED00E00C00002080B483B039
:1054B00000AF4FF0500383F31188BFF36F8FBFF33A
:1054C0004F8F7B6000BF0F4B1B6801330D4A136089
:1054D0000C4B1B68012B10D10B4B1B68DBB2002B54
:1054E0000BD04FF0500383F31188BFF36F8FBFF3DE
:1054F0004F8F3B6000BF00BFFDE700BF0C37BD46CC
:1055000080BC70470C00002004ED00E080B483B044
:1055100000AF124B1B68002B0BD14FF0500383F3ED
:105520001188BFF36F8FBFF34F8F7B6000BF00BF49
:10553000FDE70A4B1B68013B084A1360074B1B68D9
:10554000002B05D100233B603B6883F3118800BF2B
:1055500000BF0C37BD4680BC704700BF0C00002068
:10556000EFF30980BFF36F8F0D4B1A6820E9F00F3E
:10557000106008B54FF0500080F31188FEF7ECFF83
:105580004FF0000080F31188BDE8084019680868F2
:10559000B0E8F00F80F30988BFF36F8F704700BF4A
:1055A000E408002000BF00BF80B582B000AF4FF01C
:1055B000500383F31188BFF36F8FBFF34F8F7B606E
:1055C00000BFFEF70FFF0346002B03D0064B4FF042
:1055D00080521A6000233B603B6883F3118800BF50
:1055E00000BF0837BD4680BD04ED00E080B400AFC9
:1055F0000A4B00221A600A4B00221A60094B1B68F2
:10560000094AA2FB03239B09084A013B1360034B91
:1056100007221A6000BFBD4680BC704710E000E062
:1056200018E000E000000020D34D621014E000E01C
:1056300080B485B000AFEFF30583FB60FB680F2BF0
:1056400015D9174AFB6813441B78FB72154B1B785E
:10565000FA7A9A420BD24FF0500383F31188BFF3CA
:105660006F8FBFF34F8F7B6000BF00BFFDE70E4B16
:105670001B6803F4E0620D4B1B689A420BD94FF094
:10568000500383F31188BFF36F8FBFF34F8F3B60DD
:1056900000BF00BFFDE700BF1437BD4680BC7047A8
:1056A000F0E300E0100F00200CED00E0140F0020EC
:1056B00080B58AB000AF78600023FB61FEF7D8FDAB
:1056C0005C4B1B68002B01D100F024F95A4B1A687F
:1056D0007B681340002B40F095807B68002B1ED028
:1056E00008227B6813447B607B6803F00703002B70
:1056F00015D07B6823F0070308337B607B6803F0D9
:105700000703002B0BD04FF0500383F31188BFF336
:105710006F8FBFF34F8F7B6100BF00BFFDE77B68DA
:10572000002B6FD0454B1B687A689A426AD8444B6D
:105730003B62434B1B687B6204E07B6A3B627B6A93
:105740001B687B627B6A5B687A689A4203D97B6AD2
:105750001B68002BF1D1374B1B687A6A9A4251D0F3
:105760003B6A1B6808221344FB617B6A1A683B6A28
:105770001A607B6A5A687B68D21A08235B009A42D7
:1057800020D97A6A7B681344BB61BB6903F00703C5
:10579000002B0BD04FF0500383F31188BFF36F8FB2
:1057A000BFF34F8F3B6100BF00BFFDE77B6A5A68C4
:1057B0007B68D21ABB695A607B6A7A685A60B8699A
:1057C00000F00AF91D4B1A687B6A5B68D31A1B4A02
:1057D00013601A4B1A681B4B1B689A4203D2174B73
:1057E0001B68184A13607B6A5A68134B1B681A437C
:1057F0007B6A5A607B6A00221A60134B1B68013374
:10580000114A1360FEF742FDFB6903F00703002B0A
:105810000BD04FF0500383F31188BFF36F8FBFF3AA
:105820004F8FFB6000BF00BFFDE7FB6918462837BC
:10583000BD4680BD201B0020341B0020241B0020FF
:10584000181B0020281B00202C1B002080B586B0D0
:1058500000AF78607B687B617B68002B4FD00823AA
:105860005B427A6913447B617B693B613B695A689F
:10587000254B1B681340002B0BD14FF0500383F3D3
:105880001188BFF36F8FBFF34F8FFB6000BF00BF66
:10589000FDE73B691B68002B0BD04FF0500383F3EF
:1058A0001188BFF36F8FBFF34F8FBB6000BF00BF86
:1058B000FDE73B695A68144B1B681340002B1ED050
:1058C0003B691B68002B1AD13B695A680E4B1B6859
:1058D000DB431A403B695A60FEF7CAFC3B695A68D1
:1058E0000A4B1B681344094A1360386900F074F8C6
:1058F000074B1B680133064A1360FEF7C7FC00BF65
:105900001837BD4680BD00BF341B0020241B00207B
:10591000301B002080B485B000AF4FF44063BB6003
:10592000274BFB60FB6803F00703002B0CD0FB68E0
:105930000733FB60FB6823F00703FB60BA68FB6872
:10594000D31A1F4A1344BB60FB687B601D4A7B6807
:1059500013601C4B00225A607B68BA681344FB60DA
:105960000822FB689B1AFB60FB6823F00703FB60BF
:10597000FB68154A1360144B1B6800225A60124BD7
:105980001B6800221A607B683B603B68FA68D21A89
:105990003B685A600C4B1A683B681A603B685B684E
:1059A0000A4A13603B685B68094A1360094B4FF071
:1059B00000421A6000BF1437BD4680BC704700BF6C
:1059C000180F0020181B0020201B0020281B00207F
:1059D000241B0020341B002080B485B000AF786009
:1059E000274BFB6002E0FB681B68FB60FB681B68E1
:1059F0007A689A42F7D8FB68BB60FB685B68BA6854
:105A000013447A689A4208D1FB685A687B685B68DD
:105A10001A44FB685A60FB687B607B68BB607B68EC
:105A20005B68BA681A44FB681B689A4218D1FB6825
:105A30001A68144B1B689A420DD07B685A68FB6841
:105A40001B685B681A447B685A60FB681B681A68AD
:105A50007B681A6008E00B4B1A687B681A6003E0E9
:105A6000FB681A687B681A60FA687B689A4202D001
:105A7000FB687A681A6000BF1437BD4680BC704767
:105A8000181B0020201B00200EB46FF0004110B541
:105A900000249DB01FAB0290069007910491094825
:105AA000094953F8042B0591006802A901931B943E
:105AB00000F002FA029B1C701DB0BDE8104003B05C
:105AC000704700BF100000200802FFFF0346024499
:105AD000934200D1704703F8011BF9E72D4B70B5D5
